:0A0000000C9438000C9400000C94DE
:10000A0000000C9400000C9400000C9400000C9466
:10001A0000000C9400000C9400000C9400000C9456
:10002A0000000C9400000C9400000C9400000C9446
:10003A0000000C9400000C9400000C9400000C9436
:10004A0000000C9400000C9400001027E8036400E0
:10005A000A000100001000011000010080C0020027
:10006A00600166000000F894EE27ECBBF1E0FBBFEC
:10007A00EBBFE5BF8DE0A2E0BB27ED938A95E9F7D8
:10008A0080E094E0A0E6ED930197E9F7E8E6F0E076
:10009A0085919591009761F0A591B591059015907C
:1000AA00BF01F00105900D920197E1F7FB01F0CF36
:1000BA00EFE5EDBFE4E0EEBFC0E6D1E00C946500E9
:1000CA0010E020E030E0E7E0E4BBE8EFE5BBA0E1C8
:1000DA00CBD01BD01E2FF901AFE0B0E017D1EA93C5
:1000EA00D901E0E1F0E00DD1AE2F8FD0A12FA9D038
:1000FA002F5F3F4F2132E0E03E072CF098D0A12F2E
:10010A00A0D021E030E0E5CFFFCFA898A99AAA9A1B
:10011A00E3B3E63F29F49B9BFECFE1E3089514C0C5
:10012A00EE3E29F49C9BFECFE4E308950DC0EE3D1C
:10013A0029F49D9BFECFE7E3089506C0EE3B21F428
:10014A009E9BFECFEAE20895A89AA998AA9AE3B3D9
:10015A00E53F29F49B9BFECFE2E3089514C0ED3EF0
:10016A0029F49C9BFECFE5E308950DC0ED3D29F4EB
:10017A009D9BFECFE8E3089506C0ED3B21F49E9BCC
:10018A00FECFE0E30895A89AA99AAA98E3B3E33FB9
:10019A0029F49B9BFECFE3E3089514C0EB3E29F4B8
:1001AA009C9BFECFE6E308950DC0EB3D29F49D9B91
:1001BA00FECFE9E3089506C0EB3B21F49E9BFECFF8
:1001CA00E3E20895A2CF1A931A2FEBB3EF70AE2F82
:1001DA00E12FE07FEA2BEBBB8DE08A95F1F7DA9A03
:1001EA008DE08A95F1F7DA988DE08A95F1F765C086
:1001FA00AA93A881E8DFE881E295E883A881E3DF92
:10020A0085E88A95F1F7219608951A930A931A2F89
:10021A000A81E12FF0E0E05AFE4FE081E00FAE2FB5
:10022A00E7DF502E412E1981088123960895A2E016
:10023A0046D0ACE0DDDFA1E042D0E0E04E2E5E2EFB
:10024A0008951A931A2F1A3011F0571438F0E0E073
:10025A00EA934394A42DD9DF1A3079F15394D89AAA
:10026A00A12FC6DFD89829C01A931A2FEAB3E06FD4
:10027A00EABBD29AD09AD19ADA98D898D998712E9C
:10028A00E12FE058E0936201E12FE054E09363012B
:10029A00A4E1B0E053D017D016D015D0A0E293DF76
:1002AA0088EC90E00197F1F7A8E2A2DFA4E0A0DFD2
:1002BA00A5E89EDFA6E09CDFBADF1991089598DFD2
:1002CA00A3E0B0E03BC0A0E37EDF88EC90E00197BA
:1002DA00F1F70895F195E195F0400895002411246D
:1002EA0090E1AA0FBB1F001C111C0E1A1F0A18F45A
:1002FA000E0E1F1E01C0A1609A9599F7FD01D0014B
:10030A0008950ED0EBDF0EF4E5DF0895E894F7FFC9
:10031A0002C0E0DF6894EA23FB230EF4DBDF0895D2
:10032A00E894F7FF02C0D6DF6894B7FF06C0B1951C
:10033A00A195B04000F8039400FA0895109639F098
:10034A00A89580ED97E00197F1F71197C9F70895FD
:00000001FF
